20171111                                                                                                                             
B32-000000         20171107CEPRE 171106CH02BTL8CB       090002DUMMY_ACCNT  00000000000054490ACC NOT FOUND                           
B32-000000         20171107CEPRE 171106CH02BTW2MR       090002DUMMY_ACCNT  00000000000007000ACC NOT FOUND                           
B32-000000         20171107CEPRE 171106CH02BTL936       090002DUMMY_ACCNT  00000000000595200ACC NOT FOUND                           
B32-000000         20171107CEPRE 171106CH02BRAWLJ       090002DUMMY_ACCNT  00000000000041150ACC NOT FOUND                           
B32-000000         20171107CEPRE 171106CH02BRJTCP       090002DUMMY_ACCNT  00000000000060000ACC NOT FOUND                           
B32-000000         20171107CEPRE 171106CH02BSYP0E       090002DUMMY_ACCNT  00000000000140000ACC NOT FOUND                           
B32-000000         20171107CEPRE 171106CH02BT3L00       090002DUMMY_ACCNT  00000000000010000ACC NOT FOUND                           
B32-000000         20171107CEPRE 171106CH02BSXBWQ       090002DUMMY_ACCNT  00000000000088850ACC NOT FOUND                           
B32-000000         20171107CEPRE 171106CH02BSVVJR       090002DUMMY_ACCNT  00000000000050000ACC NOT FOUND                           
B32-000000         20171107CEPRE 171106CH02BRIVMC       090002DUMMY_ACCNT  00000000000022000ACC NOT FOUND                           
B32-000000         20171107CEPRE 171106CH02BSSU0H       090002DUMMY_ACCNT  00000000000058200ACC NOT FOUND                           
B32-000000         20171107CEPRE 171106CH02BRDRTU       090002DUMMY_ACCNT  00000000000015000ACC NOT FOUND                           
B32-000000         20171107CEPRE 171106CH02BSVFXF       090002DUMMY_ACCNT  00000000000006010ACC NOT FOUND                           
B32-000000         20171107CEPRE 171106CH02BSTJBG       090002DUMMY_ACCNT  00000000000049350ACC NOT FOUND                           
B32000000          20171107CEPRE 171106CH02BRI0BL       090002DUMMY_ACCNT  00000000000091275ACC NOT FOUND                           
B32000000          20171107CEPRE 171106CH02BT2IP9       090002DUMMY_ACCNT  00000000000002000ACC NOT FOUND                           
B32000000          20171107CEPRE 171106CH02BT05CK       090002DUMMY_ACCNT  00000000000010000ACC NOT FOUND                           
B32000000          20171107CEPRE 171106CH02BSXXNR       090002DUMMY_ACCNT  00000000000360500ACC NOT FOUND                           
B32000000          20171107CEPRE 171106CH02BSXSBJ       090002DUMMY_ACCNT  00000000000000350ACC NOT FOUND                           
B32000000          20171107CEPRE 171106CH02BSXSBX       090002DUMMY_ACCNT  00000000000055385ACC NOT FOUND                           
B32000000          20171107CEPRE 171106CH02BSX3R3       090002DUMMY_ACCNT  00000000000049715ACC NOT FOUND                           
B32000000          20171107CEPRE 171106CH02BSWBK2       090002DUMMY_ACCNT  00000000000020000ACC NOT FOUND                           
B32000000          20171107CEPRE 171106CH02BSVY3S       090002DUMMY_ACCNT  00000000000000420ACC NOT FOUND                           
B32000000          20171107CEPRE 171106CH02BSU0SA       090002DUMMY_ACCNT  00000000000028890ACC NOT FOUND                           
B32000000          20171107CEPRE 171106CH02BRDFSJ       090002DUMMY_ACCNT  00000000000066745ACC NOT FOUND                           
B32000000          20171107CEPRE 171106CH02BST3KG       090002DUMMY_ACCNT  00000000000012000ACC NOT FOUND                           
B32-000000         20171108CEPRE 171107CH02BZSFD2       090002DUMMY_ACCNT  00000000000040000ACC NOT FOUND                           
B32-000000         20171108CEPRE 171107CH02BZYQ1U       090002DUMMY_ACCNT  00000000000015000ACC NOT FOUND                           
B32-000000         20171108CEPRE 171107CH02BZO3Y6       090002DUMMY_ACCNT  00000000000005635ACC NOT FOUND                           
B32-000000         20171108CEPRE 171107CH02BZOWBN       090002DUMMY_ACCNT  00000000000030000ACC NOT FOUND                           
B32-000000         20171108CEPRE 171107CH02C0EX4G       090002DUMMY_ACCNT  00000000000070000ACC NOT FOUND                           
B32000000          20171108CEPRE 171107CH02BZQQ5G       090002DUMMY_ACCNT  00000000000223245ACC NOT FOUND                           
B32000000          20171108CEPRE 171107CH02BZQQ7E       090002DUMMY_ACCNT  00000000000035000ACC NOT FOUND                           
B32000000          20171108CEPRE 171107CH02BZNCT6       090002DUMMY_ACCNT  00000000000158900ACC NOT FOUND                           
B32000000          20171108CEPRE 171107CH02BZZ9VW       090002DUMMY_ACCNT  00000000000010000ACC NOT FOUND                           
B32000000          20171108CEPRE 171107CH02BZSCX2       090002DUMMY_ACCNT  00000000000100000ACC NOT FOUND                           
B32000000          20171108CEPRE 171107CH02BZRXT8       090002DUMMY_ACCNT  00000000000107000ACC NOT FOUND                           
B32000000          20171108CEPRE 171107CH02BZZUGI       090002DUMMY_ACCNT  00000000000005155ACC NOT FOUND                           
B32000000          20171108CEPRE 171107CH02BZSZS4       090002DUMMY_ACCNT  00000000000020000ACC NOT FOUND                           
B32000000          20171108CEPRE 171107CH02BZZLCZ       090002DUMMY_ACCNT  00000000000020000ACC NOT FOUND                           
B32-000000         20171109CEPRE 171108CH02C5BVRI       090002DUMMY_ACCNT  00000000000050000ACC NOT FOUND                           
B32-000000         20171109CEPRE 171108CH02C5EAYS       090002DUMMY_ACCNT  00000000000100000ACC NOT FOUND                           
B32-000000         20171109CEPRE 171108CH02C5IRYG       090002DUMMY_ACCNT  00000000000040145ACC NOT FOUND                           
B32-000000         20171109CEPRE 171108CH02C57YPB       090002DUMMY_ACCNT  00000000000387415ACC NOT FOUND                           
B32000000          20171109CEPRE 171108CH02C5F1C3       090002DUMMY_ACCNT  00000000000021030ACC NOT FOUND                           
B32000000          20171109CEPRE 171108CH02C5IX24       090002DUMMY_ACCNT  00000000000064600ACC NOT FOUND                           
B32000000          20171109CEPRE 171108CH02C5SG3M       090002DUMMY_ACCNT  00000000000009485ACC NOT FOUND                           
B32000000          20171109CEPRE 171108CH02C56AWT       090002DUMMY_ACCNT  00000000000037000ACC NOT FOUND                           
B32000000          20171109CEPRE 171108CH02C5T4KW       090002DUMMY_ACCNT  00000000000030000ACC NOT FOUND                           
B32000000          20171109CEPRE 171108CH02C57HPB       090002DUMMY_ACCNT  00000000000039925ACC NOT FOUND                           
B32000000          20171109CEPRE 171108CH02C58596       090002DUMMY_ACCNT  00000000000015000ACC NOT FOUND                           
0005100000000003528100                                                                                                               
